{
  "contractName": "Ownable",
  "abi": [
    {
      "constant": true,
      "inputs": [],
      "name": "carCount",
      "outputs": [
        {
          "internalType": "uint256",
          "name": "",
          "type": "uint256"
        }
      ],
      "payable": false,
      "stateMutability": "view",
      "type": "function"
    },
    {
      "constant": true,
      "inputs": [
        {
          "internalType": "uint256",
          "name": "",
          "type": "uint256"
        }
      ],
      "name": "cars",
      "outputs": [
        {
          "internalType": "uint256",
          "name": "id",
          "type": "uint256"
        },
        {
          "internalType": "string",
          "name": "Regno",
          "type": "string"
        },
        {
          "internalType": "string",
          "name": "Model",
          "type": "string"
        },
        {
          "internalType": "string",
          "name": "desc",
          "type": "string"
        },
        {
          "internalType": "uint256",
          "name": "timesRented",
          "type": "uint256"
        },
        {
          "internalType": "string",
          "name": "Status",
          "type": "string"
        },
        {
          "internalType": "string",
          "name": "Image",
          "type": "string"
        },
        {
          "internalType": "address payable",
          "name": "Owner",
          "type": "address"
        },
        {
          "internalType": "address payable",
          "name": "client",
          "type": "address"
        },
        {
          "internalType": "uint256",
          "name": "Rate",
          "type": "uint256"
        }
      ],
      "payable": false,
      "stateMutability": "view",
      "type": "function"
    },
    {
      "constant": true,
      "inputs": [],
      "name": "clientCount",
      "outputs": [
        {
          "internalType": "uint256",
          "name": "",
          "type": "uint256"
        }
      ],
      "payable": false,
      "stateMutability": "view",
      "type": "function"
    },
    {
      "constant": true,
      "inputs": [
        {
          "internalType": "uint256",
          "name": "",
          "type": "uint256"
        }
      ],
      "name": "clients",
      "outputs": [
        {
          "internalType": "uint256",
          "name": "id",
          "type": "uint256"
        },
        {
          "internalType": "string",
          "name": "bcar",
          "type": "string"
        },
        {
          "internalType": "string",
          "name": "Regno",
          "type": "string"
        },
        {
          "internalType": "string",
          "name": "name",
          "type": "string"
        },
        {
          "internalType": "string",
          "name": "Cphno",
          "type": "string"
        },
        {
          "internalType": "address payable",
          "name": "Client",
          "type": "address"
        },
        {
          "internalType": "string",
          "name": "startDate",
          "type": "string"
        },
        {
          "internalType": "string",
          "name": "endDate",
          "type": "string"
        },
        {
          "internalType": "uint256",
          "name": "Fare",
          "type": "uint256"
        }
      ],
      "payable": false,
      "stateMutability": "view",
      "type": "function"
    },
    {
      "constant": true,
      "inputs": [],
      "name": "userCount",
      "outputs": [
        {
          "internalType": "uint256",
          "name": "",
          "type": "uint256"
        }
      ],
      "payable": false,
      "stateMutability": "view",
      "type": "function"
    },
    {
      "constant": true,
      "inputs": [
        {
          "internalType": "uint256",
          "name": "",
          "type": "uint256"
        }
      ],
      "name": "users",
      "outputs": [
        {
          "internalType": "uint256",
          "name": "id",
          "type": "uint256"
        },
        {
          "internalType": "string",
          "name": "name",
          "type": "string"
        },
        {
          "internalType": "address",
          "name": "user",
          "type": "address"
        },
        {
          "internalType": "string",
          "name": "email",
          "type": "string"
        },
        {
          "internalType": "bool",
          "name": "authorized",
          "type": "bool"
        }
      ],
      "payable": false,
      "stateMutability": "view",
      "type": "function"
    },
    {
      "constant": false,
      "inputs": [
        {
          "internalType": "string",
          "name": "_RegNo",
          "type": "string"
        },
        {
          "internalType": "string",
          "name": "_model",
          "type": "string"
        },
        {
          "internalType": "string",
          "name": "_desc",
          "type": "string"
        },
        {
          "internalType": "string",
          "name": "_image",
          "type": "string"
        },
        {
          "internalType": "uint256",
          "name": "_rate",
          "type": "uint256"
        }
      ],
      "name": "addCar",
      "outputs": [],
      "payable": true,
      "stateMutability": "payable",
      "type": "function"
    },
    {
      "constant": false,
      "inputs": [
        {
          "internalType": "uint256",
          "name": "_id",
          "type": "uint256"
        },
        {
          "internalType": "string",
          "name": "_name",
          "type": "string"
        },
        {
          "internalType": "string",
          "name": "_Cphno",
          "type": "string"
        },
        {
          "internalType": "string",
          "name": "_startDate",
          "type": "string"
        },
        {
          "internalType": "string",
          "name": "_endDate",
          "type": "string"
        },
        {
          "internalType": "uint256",
          "name": "_tFare",
          "type": "uint256"
        }
      ],
      "name": "bookCar",
      "outputs": [],
      "payable": true,
      "stateMutability": "payable",
      "type": "function"
    },
    {
      "constant": false,
      "inputs": [
        {
          "internalType": "uint256",
          "name": "_id",
          "type": "uint256"
        }
      ],
      "name": "endRent",
      "outputs": [],
      "payable": true,
      "stateMutability": "payable",
      "type": "function"
    },
    {
      "constant": false,
      "inputs": [
        {
          "internalType": "address",
          "name": "_address",
          "type": "address"
        },
        {
          "internalType": "string",
          "name": "_name",
          "type": "string"
        },
        {
          "internalType": "string",
          "name": "_email",
          "type": "string"
        }
      ],
      "name": "authorizeAccount",
      "outputs": [],
      "payable": false,
      "stateMutability": "nonpayable",
      "type": "function"
    }
  ],
  "bytecode": "0x608060405260006003556000600455600060055534801561001f57600080fd5b50612ba88061002f6000396000f3fe6080604052600436106100915760003560e01c8063797c535911610059578063797c53591461065a578063a1b3c63614610688578063e541c71e1461091c578063f7746e3614610947578063f88af21d14610c2657610091565b806307973ccf14610096578063297a1f56146100c1578063365b98b2146100ec57806373e895fc1461025157806373eeb3b7146103d0575b600080fd5b3480156100a257600080fd5b506100ab610f37565b6040518082815260200191505060405180910390f35b3480156100cd57600080fd5b506100d6610f3d565b6040518082815260200191505060405180910390f35b3480156100f857600080fd5b506101256004803603602081101561010f57600080fd5b8101908080359060200190929190505050610f43565b60405180868152602001806020018573ffffffffffffffffffffffffffffffffffffffff1673ffffffffffffffffffffffffffffffffffffffff1681526020018060200184151515158152602001838103835287818151815260200191508051906020019080838360005b838110156101ab578082015181840152602081019050610190565b50505050905090810190601f1680156101d85780820380516001836020036101000a031916815260200191505b50838103825285818151815260200191508051906020019080838360005b838110156102115780820151818401526020810190506101f6565b50505050905090810190601f16801561023e5780820380516001836020036101000a031916815260200191505b5097505050505050505060405180910390f35b34801561025d57600080fd5b506103ce6004803603606081101561027457600080fd5b81019080803573ffffffffffffffffffffffffffffffffffffffff169060200190929190803590602001906401000000008111156102b157600080fd5b8201836020820111156102c357600080fd5b803590602001918460018302840111640100000000831117156102e557600080fd5b91908080601f016020809104026020016040519081016040528093929190818152602001838380828437600081840152601f19601f8201169050808301925050505050505091929192908035906020019064010000000081111561034857600080fd5b82018360208201111561035a57600080fd5b8035906020019184600183028401116401000000008311171561037c57600080fd5b91908080601f016020809104026020016040519081016040528093929190818152602001838380828437600081840152601f19601f8201169050808301925050505050505091929192905050506110d6565b005b610658600480360360a08110156103e657600080fd5b810190808035906020019064010000000081111561040357600080fd5b82018360208201111561041557600080fd5b8035906020019184600183028401116401000000008311171561043757600080fd5b91908080601f016020809104026020016040519081016040528093929190818152602001838380828437600081840152601f19601f8201169050808301925050505050505091929192908035906020019064010000000081111561049a57600080fd5b8201836020820111156104ac57600080fd5b803590602001918460018302840111640100000000831117156104ce57600080fd5b91908080601f016020809104026020016040519081016040528093929190818152602001838380828437600081840152601f19601f8201169050808301925050505050505091929192908035906020019064010000000081111561053157600080fd5b82018360208201111561054357600080fd5b8035906020019184600183028401116401000000008311171561056557600080fd5b91908080601f016020809104026020016040519081016040528093929190818152602001838380828437600081840152601f19601f820116905080830192505050505050509192919290803590602001906401000000008111156105c857600080fd5b8201836020820111156105da57600080fd5b803590602001918460018302840111640100000000831117156105fc57600080fd5b91908080601f016020809104026020016040519081016040528093929190818152602001838380828437600081840152601f19601f820116905080830192505050505050509192919290803590602001909291905050506111f2565b005b6106866004803603602081101561067057600080fd5b810190808035906020019092919050505061141c565b005b61091a600480360360c081101561069e57600080fd5b8101908080359060200190929190803590602001906401000000008111156106c557600080fd5b8201836020820111156106d757600080fd5b803590602001918460018302840111640100000000831117156106f957600080fd5b91908080601f016020809104026020016040519081016040528093929190818152602001838380828437600081840152601f19601f8201169050808301925050505050505091929192908035906020019064010000000081111561075c57600080fd5b82018360208201111561076e57600080fd5b8035906020019184600183028401116401000000008311171561079057600080fd5b91908080601f016020809104026020016040519081016040528093929190818152602001838380828437600081840152601f19601f820116905080830192505050505050509192919290803590602001906401000000008111156107f357600080fd5b82018360208201111561080557600080fd5b8035906020019184600183028401116401000000008311171561082757600080fd5b91908080601f016020809104026020016040519081016040528093929190818152602001838380828437600081840152601f19601f8201169050808301925050505050505091929192908035906020019064010000000081111561088a57600080fd5b82018360208201111561089c57600080fd5b803590602001918460018302840111640100000000831117156108be57600080fd5b91908080601f016020809104026020016040519081016040528093929190818152602001838380828437600081840152601f19601f82011690508083019250505050505050919291929080359060200190929190505050611a62565b005b34801561092857600080fd5b506109316122bf565b6040518082815260200191505060405180910390f35b34801561095357600080fd5b506109806004803603602081101561096a57600080fd5b81019080803590602001909291905050506122c5565b604051808b81526020018060200180602001806020018a815260200180602001806020018973ffffffffffffffffffffffffffffffffffffffff1673ffffffffffffffffffffffffffffffffffffffff1681526020018873ffffffffffffffffffffffffffffffffffffffff1673ffffffffffffffffffffffffffffffffffffffff16815260200187815260200186810386528f818151815260200191508051906020019080838360005b83811015610a46578082015181840152602081019050610a2b565b50505050905090810190601f168015610a735780820380516001836020036101000a031916815260200191505b5086810385528e818151815260200191508051906020019080838360005b83811015610aac578082015181840152602081019050610a91565b50505050905090810190601f168015610ad95780820380516001836020036101000a031916815260200191505b5086810384528d818151815260200191508051906020019080838360005b83811015610b12578082015181840152602081019050610af7565b50505050905090810190601f168015610b3f5780820380516001836020036101000a031916815260200191505b5086810383528b818151815260200191508051906020019080838360005b83811015610b78578082015181840152602081019050610b5d565b50505050905090810190601f168015610ba55780820380516001836020036101000a031916815260200191505b5086810382528a818151815260200191508051906020019080838360005b83811015610bde578082015181840152602081019050610bc3565b50505050905090810190601f168015610c0b5780820380516001836020036101000a031916815260200191505b509f5050505050505050505050505050505060405180910390f35b348015610c3257600080fd5b50610c5f60048036036020811015610c4957600080fd5b8101908080359060200190929190505050612651565b604051808a8152602001806020018060200180602001806020018973ffffffffffffffffffffffffffffffffffffffff1673ffffffffffffffffffffffffffffffffffffffff168152602001806020018060200188815260200187810387528f818151815260200191508051906020019080838360005b83811015610cf1578082015181840152602081019050610cd6565b50505050905090810190601f168015610d1e5780820380516001836020036101000a031916815260200191505b5087810386528e818151815260200191508051906020019080838360005b83811015610d57578082015181840152602081019050610d3c565b50505050905090810190601f168015610d845780820380516001836020036101000a031916815260200191505b5087810385528d818151815260200191508051906020019080838360005b83811015610dbd578082015181840152602081019050610da2565b50505050905090810190601f168015610dea5780820380516001836020036101000a031916815260200191505b5087810384528c818151815260200191508051906020019080838360005b83811015610e23578082015181840152602081019050610e08565b50505050905090810190601f168015610e505780820380516001836020036101000a031916815260200191505b5087810383528a818151815260200191508051906020019080838360005b83811015610e89578082015181840152602081019050610e6e565b50505050905090810190601f168015610eb65780820380516001836020036101000a031916815260200191505b50878103825289818151815260200191508051906020019080838360005b83811015610eef578082015181840152602081019050610ed4565b50505050905090810190601f168015610f1c5780820380516001836020036101000a031916815260200191505b509f5050505050505050505050505050505060405180910390f35b60055481565b60035481565b6001602052806000526040600020600091509050806000015490806001018054600181600116156101000203166002900480601f016020809104026020016040519081016040528092919081815260200182805460018160011615610100020316600290048015610ff55780601f10610fca57610100808354040283529160200191610ff5565b820191906000526020600020905b815481529060010190602001808311610fd857829003601f168201915b5050505050908060020160009054906101000a900473ffffffffffffffffffffffffffffffffffffffff1690806003018054600181600116156101000203166002900480601f0160208091040260200160405190810160405280929190818152602001828054600181600116156101000203166002900480156110b95780601f1061108e576101008083540402835291602001916110b9565b820191906000526020600020905b81548152906001019060200180831161109c57829003601f168201915b5050505050908060040160009054906101000a900460ff16905085565b6005600081548092919060010191905055506040518060a0016040528060055481526020018381526020018473ffffffffffffffffffffffffffffffffffffffff16815260200182815260200160011515815250600160006005548152602001908152602001600020600082015181600001556020820151816001019080519060200190611165929190612a4f565b5060408201518160020160006101000a81548173ffffffffffffffffffffffffffffffffffffffff021916908373ffffffffffffffffffffffffffffffffffffffff16021790555060608201518160030190805190602001906111c9929190612a4f565b5060808201518160040160006101000a81548160ff021916908315150217905550905050505050565b6002810234101561120257600080fd5b6003600081548092919060010191905055506040518061014001604052806003548152602001868152602001858152602001848152602001600081526020016040518060400160405280600981526020017f417661696c61626c65000000000000000000000000000000000000000000000081525081526020018381526020013373ffffffffffffffffffffffffffffffffffffffff168152602001600073ffffffffffffffffffffffffffffffffffffffff1681526020018281525060008060035481526020019081526020016000206000820151816000015560208201518160010190805190602001906112f9929190612a4f565b506040820151816002019080519060200190611316929190612a4f565b506060820151816003019080519060200190611333929190612a4f565b506080820151816004015560a082015181600501908051906020019061135a929190612a4f565b5060c0820151816006019080519060200190611377929190612a4f565b5060e08201518160070160006101000a81548173ffffffffffffffffffffffffffffffffffffffff021916908373ffffffffffffffffffffffffffffffffffffffff1602179055506101008201518160080160006101000a81548173ffffffffffffffffffffffffffffffffffffffff021916908373ffffffffffffffffffffffffffffffffffffffff16021790555061012082015181600901559050505050505050565b611424612acf565b6000808381526020019081526020016000206040518061014001604052908160008201548152602001600182018054600181600116156101000203166002900480601f0160208091040260200160405190810160405280929190818152602001828054600181600116156101000203166002900480156114e55780601f106114ba576101008083540402835291602001916114e5565b820191906000526020600020905b8154815290600101906020018083116114c857829003601f168201915b50505050508152602001600282018054600181600116156101000203166002900480601f0160208091040260200160405190810160405280929190818152602001828054600181600116156101000203166002900480156115875780601f1061155c57610100808354040283529160200191611587565b820191906000526020600020905b81548152906001019060200180831161156a57829003601f168201915b50505050508152602001600382018054600181600116156101000203166002900480601f0160208091040260200160405190810160405280929190818152602001828054600181600116156101000203166002900480156116295780601f106115fe57610100808354040283529160200191611629565b820191906000526020600020905b81548152906001019060200180831161160c57829003601f168201915b5050505050815260200160048201548152602001600582018054600181600116156101000203166002900480601f0160208091040260200160405190810160405280929190818152602001828054600181600116156101000203166002900480156116d55780601f106116aa576101008083540402835291602001916116d5565b820191906000526020600020905b8154815290600101906020018083116116b857829003601f168201915b50505050508152602001600682018054600181600116156101000203166002900480601f0160208091040260200160405190810160405280929190818152602001828054600181600116156101000203166002900480156117775780601f1061174c57610100808354040283529160200191611777565b820191906000526020600020905b81548152906001019060200180831161175a57829003601f168201915b505050505081526020016007820160009054906101000a900473ffffffffffffffffffffffffffffffffffffffff1673ffffffffffffffffffffffffffffffffffffffff1673ffffffffffffffffffffffffffffffffffffffff1681526020016008820160009054906101000a900473ffffffffffffffffffffffffffffffffffffffff1673ffffffffffffffffffffffffffffffffffffffff1673ffffffffffffffffffffffffffffffffffffffff168152602001600982015481525050905060008160e0015190508073ffffffffffffffffffffffffffffffffffffffff166108fc674563918244f400009081150290604051600060405180830381858888f1935050505015801561188f573d6000803e3d6000fd5b506040518060400160405280600981526020017f417661696c61626c6500000000000000000000000000000000000000000000008152508260a00181905250600082610100019073ffffffffffffffffffffffffffffffffffffffff16908173ffffffffffffffffffffffffffffffffffffffff168152505081600080858152602001908152602001600020600082015181600001556020820151816001019080519060200190611941929190612a4f565b50604082015181600201908051906020019061195e929190612a4f565b50606082015181600301908051906020019061197b929190612a4f565b506080820151816004015560a08201518160050190805190602001906119a2929190612a4f565b5060c08201518160060190805190602001906119bf929190612a4f565b5060e08201518160070160006101000a81548173ffffffffffffffffffffffffffffffffffffffff021916908373ffffffffffffffffffffffffffffffffffffffff1602179055506101008201518160080160006101000a81548173ffffffffffffffffffffffffffffffffffffffff021916908373ffffffffffffffffffffffffffffffffffffffff1602179055506101208201518160090155905050505050565b611a6a612acf565b6000808881526020019081526020016000206040518061014001604052908160008201548152602001600182018054600181600116156101000203166002900480601f016020809104026020016040519081016040528092919081815260200182805460018160011615610100020316600290048015611b2b5780601f10611b0057610100808354040283529160200191611b2b565b820191906000526020600020905b815481529060010190602001808311611b0e57829003601f168201915b50505050508152602001600282018054600181600116156101000203166002900480601f016020809104026020016040519081016040528092919081815260200182805460018160011615610100020316600290048015611bcd5780601f10611ba257610100808354040283529160200191611bcd565b820191906000526020600020905b815481529060010190602001808311611bb057829003601f168201915b50505050508152602001600382018054600181600116156101000203166002900480601f016020809104026020016040519081016040528092919081815260200182805460018160011615610100020316600290048015611c6f5780601f10611c4457610100808354040283529160200191611c6f565b820191906000526020600020905b815481529060010190602001808311611c5257829003601f168201915b5050505050815260200160048201548152602001600582018054600181600116156101000203166002900480601f016020809104026020016040519081016040528092919081815260200182805460018160011615610100020316600290048015611d1b5780601f10611cf057610100808354040283529160200191611d1b565b820191906000526020600020905b815481529060010190602001808311611cfe57829003601f168201915b50505050508152602001600682018054600181600116156101000203166002900480601f016020809104026020016040519081016040528092919081815260200182805460018160011615610100020316600290048015611dbd5780601f10611d9257610100808354040283529160200191611dbd565b820191906000526020600020905b815481529060010190602001808311611da057829003601f168201915b505050505081526020016007820160009054906101000a900473ffffffffffffffffffffffffffffffffffffffff1673ffffffffffffffffffffffffffffffffffffffff1673ffffffffffffffffffffffffffffffffffffffff1681526020016008820160009054906101000a900473ffffffffffffffffffffffffffffffffffffffff1673ffffffffffffffffffffffffffffffffffffffff1673ffffffffffffffffffffffffffffffffffffffff168152602001600982015481525050905060405160200180807f417661696c61626c6500000000000000000000000000000000000000000000008152506009019050604051602081830303815290604052805190602001208160a001516040516020018082805190602001908083835b60208310611f005780518252602082019150602081019050602083039250611edd565b6001836020036101000a0380198251168184511680821785525050505050509050019150506040516020818303038152906040528051906020012014611f4557600080fd5b60018160800151018160800181815250506040518060400160405280600581526020017f48697265640000000000000000000000000000000000000000000000000000008152508160a001819052503381610100019073ffffffffffffffffffffffffffffffffffffffff16908173ffffffffffffffffffffffffffffffffffffffff168152505080600080898152602001908152602001600020600082015181600001556020820151816001019080519060200190612006929190612a4f565b506040820151816002019080519060200190612023929190612a4f565b506060820151816003019080519060200190612040929190612a4f565b506080820151816004015560a0820151816005019080519060200190612067929190612a4f565b5060c0820151816006019080519060200190612084929190612a4f565b5060e08201518160070160006101000a81548173ffffffffffffffffffffffffffffffffffffffff021916908373ffffffffffffffffffffffffffffffffffffffff1602179055506101008201518160080160006101000a81548173ffffffffffffffffffffffffffffffffffffffff021916908373ffffffffffffffffffffffffffffffffffffffff1602179055506101208201518160090155905050600460008154809291906001019190505550604051806101200160405280600454815260200182604001518152602001826020015181526020018781526020018681526020013373ffffffffffffffffffffffffffffffffffffffff168152602001858152602001848152602001838152506002600060045481526020019081526020016000206000820151816000015560208201518160010190805190602001906121cf929190612a4f565b5060408201518160020190805190602001906121ec929190612a4f565b506060820151816003019080519060200190612209929190612a4f565b506080820151816004019080519060200190612226929190612a4f565b5060a08201518160050160006101000a81548173ffffffffffffffffffffffffffffffffffffffff021916908373ffffffffffffffffffffffffffffffffffffffff16021790555060c082015181600601908051906020019061228a929190612a4f565b5060e08201518160070190805190602001906122a7929190612a4f565b50610100820151816008015590505050505050505050565b60045481565b6000602052806000526040600020600091509050806000015490806001018054600181600116156101000203166002900480601f0160208091040260200160405190810160405280929190818152602001828054600181600116156101000203166002900480156123775780601f1061234c57610100808354040283529160200191612377565b820191906000526020600020905b81548152906001019060200180831161235a57829003601f168201915b505050505090806002018054600181600116156101000203166002900480601f0160208091040260200160405190810160405280929190818152602001828054600181600116156101000203166002900480156124155780601f106123ea57610100808354040283529160200191612415565b820191906000526020600020905b8154815290600101906020018083116123f857829003601f168201915b505050505090806003018054600181600116156101000203166002900480601f0160208091040260200160405190810160405280929190818152602001828054600181600116156101000203166002900480156124b35780601f10612488576101008083540402835291602001916124b3565b820191906000526020600020905b81548152906001019060200180831161249657829003601f168201915b505050505090806004015490806005018054600181600116156101000203166002900480601f0160208091040260200160405190810160405280929190818152602001828054600181600116156101000203166002900480156125575780601f1061252c57610100808354040283529160200191612557565b820191906000526020600020905b81548152906001019060200180831161253a57829003601f168201915b505050505090806006018054600181600116156101000203166002900480601f0160208091040260200160405190810160405280929190818152602001828054600181600116156101000203166002900480156125f55780601f106125ca576101008083540402835291602001916125f5565b820191906000526020600020905b8154815290600101906020018083116125d857829003601f168201915b5050505050908060070160009054906101000a900473ffffffffffffffffffffffffffffffffffffffff16908060080160009054906101000a900473ffffffffffffffffffffffffffffffffffffffff1690806009015490508a565b6002602052806000526040600020600091509050806000015490806001018054600181600116156101000203166002900480601f0160208091040260200160405190810160405280929190818152602001828054600181600116156101000203166002900480156127035780601f106126d857610100808354040283529160200191612703565b820191906000526020600020905b8154815290600101906020018083116126e657829003601f168201915b505050505090806002018054600181600116156101000203166002900480601f0160208091040260200160405190810160405280929190818152602001828054600181600116156101000203166002900480156127a15780601f10612776576101008083540402835291602001916127a1565b820191906000526020600020905b81548152906001019060200180831161278457829003601f168201915b505050505090806003018054600181600116156101000203166002900480601f01602080910402602001604051908101604052809291908181526020018280546001816001161561010002031660029004801561283f5780601f106128145761010080835404028352916020019161283f565b820191906000526020600020905b81548152906001019060200180831161282257829003601f168201915b505050505090806004018054600181600116156101000203166002900480601f0160208091040260200160405190810160405280929190818152602001828054600181600116156101000203166002900480156128dd5780601f106128b2576101008083540402835291602001916128dd565b820191906000526020600020905b8154815290600101906020018083116128c057829003601f168201915b5050505050908060050160009054906101000a900473ffffffffffffffffffffffffffffffffffffffff1690806006018054600181600116156101000203166002900480601f0160208091040260200160405190810160405280929190818152602001828054600181600116156101000203166002900480156129a15780601f10612976576101008083540402835291602001916129a1565b820191906000526020600020905b81548152906001019060200180831161298457829003601f168201915b505050505090806007018054600181600116156101000203166002900480601f016020809104026020016040519081016040528092919081815260200182805460018160011615610100020316600290048015612a3f5780601f10612a1457610100808354040283529160200191612a3f565b820191906000526020600020905b815481529060010190602001808311612a2257829003601f168201915b5050505050908060080154905089565b828054600181600116156101000203166002900490600052602060002090601f016020900481019282601f10612a9057805160ff1916838001178555612abe565b82800160010185558215612abe579182015b82811115612abd578251825591602001919060010190612aa2565b5b509050612acb9190612b4e565b5090565b60405180610140016040528060008152602001606081526020016060815260200160608152602001600081526020016060815260200160608152602001600073ffffffffffffffffffffffffffffffffffffffff168152602001600073ffffffffffffffffffffffffffffffffffffffff168152602001600081525090565b612b7091905b80821115612b6c576000816000905550600101612b54565b5090565b9056fea265627a7a72315820d0d929bbf99b4601b48fd956c02a6c493285d34114eca9d8b43d7647e400defe64736f6c63430005100032",
  "source": "pragma solidity ^0.5.16;\r\n\r\nimport \"./safeMath.sol\";\r\n\r\n\r\ncontract Ownable {\r\n    mapping(uint256 => Car) public cars;\r\n    mapping(uint256 => User) public users;\r\n    mapping(uint256 => Client) public clients;\r\n    uint256 public carCount = 0;\r\n    uint256 public clientCount = 0;\r\n    uint256 public userCount = 0;\r\n\r\n    struct Car {\r\n        uint256 id;\r\n        string Regno;\r\n        string Model;\r\n        string desc;\r\n        uint256 timesRented;\r\n        string Status;\r\n        string Image;\r\n        address payable Owner;\r\n        address payable client;\r\n        uint256 Rate;\r\n    }\r\n    struct User {\r\n        uint256 id;\r\n        string name;\r\n        address user;\r\n        string email;\r\n        bool authorized;\r\n    }\r\n\r\n    struct Client {\r\n        uint256 id;\r\n        string bcar;\r\n        string Regno;\r\n        string name;\r\n        string Cphno;\r\n        address payable Client;\r\n        string startDate;\r\n        string endDate;\r\n        uint256 Fare;\r\n    }\r\n\r\n    function addCar(\r\n        string memory _RegNo,\r\n        string memory _model,\r\n        string memory _desc,\r\n        string memory _image,\r\n        uint256 _rate\r\n    ) public payable {\r\n        // Increment the car count\r\n\r\n        require(msg.value >= _rate * 2);\r\n        carCount++;\r\n        // Add Car\r\n        cars[carCount] = Car(\r\n            carCount,\r\n            _RegNo,\r\n            _model,\r\n            _desc,\r\n            0,\r\n            \"Available\",\r\n            _image,\r\n            msg.sender,\r\n            address(0x0),\r\n            _rate\r\n        );\r\n    }\r\n\r\n    function bookCar(\r\n        uint256 _id,\r\n        string memory _name,\r\n        string memory _Cphno,\r\n        string memory _startDate,\r\n        string memory _endDate,\r\n        uint256 _tFare\r\n    ) public payable {\r\n        Car memory _car = cars[_id];\r\n\r\n        require(\r\n            keccak256(abi.encodePacked((_car.Status))) ==\r\n                keccak256(abi.encodePacked((\"Available\")))\r\n        );\r\n\r\n        _car.timesRented = _car.timesRented + 1;\r\n        _car.Status = \"Hired\";\r\n        _car.client = msg.sender;\r\n        cars[_id] = _car;\r\n        clientCount++;\r\n        clients[clientCount] = Client(\r\n            clientCount,\r\n            _car.Model,\r\n            _car.Regno,\r\n            _name,\r\n            _Cphno,\r\n            msg.sender,\r\n            _startDate,\r\n            _endDate,\r\n            _tFare\r\n        );\r\n    }\r\n\r\n    function endRent(uint256 _id) public payable {\r\n        Car memory _car = cars[_id];\r\n        address payable _owner = _car.Owner;\r\n        address(_owner).transfer(5 ether);\r\n        _car.Status = \"Available\";\r\n        _car.client = address(0x0);\r\n        cars[_id] = _car;\r\n    }\r\n\r\n    function authorizeAccount(\r\n        address _address,\r\n        string memory _name,\r\n        string memory _email\r\n    ) public {\r\n        userCount++;\r\n        users[userCount] = User(userCount, _name, _address, _email, true);\r\n    }\r\n}\r\n",
  "sourcePath": "J:\\rihab\\CAR\\src\\contracts\\Ownable.sol",
  "compiler": {
    "name": "solc",
    "version": "0.5.16+commit.9c3226ce.Emscripten.clang"
  },
  "schemaVersion": "3.0.23",
  "updatedAt": "2020-06-10T05:55:38.914Z",
  "networkType": "ethereum",
  "devdoc": {
    "methods": {}
  },
  "userdoc": {
    "methods": {}
  }
}