{
  "contractName": "SmartCar",
  "abi": [
    {
      "inputs": [],
      "payable": false,
      "stateMutability": "nonpayable",
      "type": "constructor"
    },
    {
      "anonymous": false,
      "inputs": [
        {
          "indexed": true,
          "internalType": "address",
          "name": "_currentDriverAddress",
          "type": "address"
        },
        {
          "indexed": false,
          "internalType": "uint256",
          "name": "balanceToClient",
          "type": "uint256"
        }
      ],
      "name": "E_ClientBalance",
      "type": "event"
    },
    {
      "anonymous": false,
      "inputs": [
        {
          "indexed": true,
          "internalType": "address",
          "name": "_currentDriverAddress",
          "type": "address"
        },
        {
          "indexed": false,
          "internalType": "uint256",
          "name": "_rentalEnd",
          "type": "uint256"
        },
        {
          "indexed": false,
          "internalType": "bool",
          "name": "_endedWithinPeriod",
          "type": "bool"
        }
      ],
      "name": "E_EndRentCarDaily",
      "type": "event"
    },
    {
      "anonymous": false,
      "inputs": [
        {
          "indexed": true,
          "internalType": "address",
          "name": "_currentDriverAddress",
          "type": "address"
        },
        {
          "indexed": false,
          "internalType": "uint256",
          "name": "_rentValue",
          "type": "uint256"
        },
        {
          "indexed": false,
          "internalType": "uint256",
          "name": "_rentalStart",
          "type": "uint256"
        },
        {
          "indexed": false,
          "internalType": "uint256",
          "name": "_rentalEnd",
          "type": "uint256"
        }
      ],
      "name": "E_RentCarDaily",
      "type": "event"
    },
    {
      "anonymous": false,
      "inputs": [
        {
          "indexed": false,
          "internalType": "address",
          "name": "_carSigner",
          "type": "address"
        },
        {
          "indexed": false,
          "internalType": "uint256",
          "name": "_amount",
          "type": "uint256"
        },
        {
          "indexed": true,
          "internalType": "uint256",
          "name": "_eventDate",
          "type": "uint256"
        }
      ],
      "name": "E_TransferEthForStipends",
      "type": "event"
    },
    {
      "anonymous": false,
      "inputs": [
        {
          "indexed": false,
          "internalType": "address",
          "name": "owner",
          "type": "address"
        },
        {
          "indexed": false,
          "internalType": "string",
          "name": "status",
          "type": "string"
        }
      ],
      "name": "owner",
      "type": "event"
    },
    {
      "constant": true,
      "inputs": [
        {
          "internalType": "address",
          "name": "",
          "type": "address"
        }
      ],
      "name": "carShares",
      "outputs": [
        {
          "internalType": "uint256",
          "name": "",
          "type": "uint256"
        }
      ],
      "payable": false,
      "stateMutability": "view",
      "type": "function"
    },
    {
      "constant": true,
      "inputs": [],
      "name": "carSigner",
      "outputs": [
        {
          "internalType": "address payable",
          "name": "",
          "type": "address"
        }
      ],
      "payable": false,
      "stateMutability": "view",
      "type": "function"
    },
    {
      "constant": true,
      "inputs": [],
      "name": "currentDriveStatus",
      "outputs": [
        {
          "internalType": "string",
          "name": "",
          "type": "string"
        }
      ],
      "payable": false,
      "stateMutability": "view",
      "type": "function"
    },
    {
      "constant": true,
      "inputs": [
        {
          "internalType": "uint256",
          "name": "",
          "type": "uint256"
        }
      ],
      "name": "owners",
      "outputs": [
        {
          "internalType": "address",
          "name": "",
          "type": "address"
        }
      ],
      "payable": false,
      "stateMutability": "view",
      "type": "function"
    },
    {
      "constant": true,
      "inputs": [
        {
          "internalType": "address",
          "name": "",
          "type": "address"
        }
      ],
      "name": "ownersBalance",
      "outputs": [
        {
          "internalType": "uint256",
          "name": "",
          "type": "uint256"
        }
      ],
      "payable": false,
      "stateMutability": "view",
      "type": "function"
    },
    {
      "constant": false,
      "inputs": [
        {
          "internalType": "address",
          "name": "_owners",
          "type": "address"
        }
      ],
      "name": "setOwners",
      "outputs": [],
      "payable": false,
      "stateMutability": "nonpayable",
      "type": "function"
    },
    {
      "constant": true,
      "inputs": [
        {
          "internalType": "string",
          "name": "_status",
          "type": "string"
        }
      ],
      "name": "isCorrect",
      "outputs": [
        {
          "internalType": "bool",
          "name": "",
          "type": "bool"
        }
      ],
      "payable": false,
      "stateMutability": "view",
      "type": "function"
    },
    {
      "constant": false,
      "inputs": [],
      "name": "rentCarDaily",
      "outputs": [],
      "payable": true,
      "stateMutability": "payable",
      "type": "function"
    },
    {
      "constant": true,
      "inputs": [
        {
          "internalType": "address",
          "name": "_user",
          "type": "address"
        }
      ],
      "name": "activateCar",
      "outputs": [
        {
          "internalType": "bool",
          "name": "",
          "type": "bool"
        }
      ],
      "payable": false,
      "stateMutability": "view",
      "type": "function"
    },
    {
      "constant": false,
      "inputs": [],
      "name": "endRentCarDaily",
      "outputs": [],
      "payable": true,
      "stateMutability": "payable",
      "type": "function"
    },
    {
      "constant": false,
      "inputs": [],
      "name": "triggerTransferEthForStipends",
      "outputs": [],
      "payable": true,
      "stateMutability": "payable",
      "type": "function"
    },
    {
      "constant": false,
      "inputs": [],
      "name": "withdrawEarnings",
      "outputs": [],
      "payable": true,
      "stateMutability": "payable",
      "type": "function"
    }
  ],
  "bytecode": "0x60806040526000600855635dbd1bc46009556000600a556000600b556000600d60006101000a81548160ff0219169083151502179055503480156200004357600080fd5b50336000806101000a81548173ffffffffffffffffffffffffffffffffffffffff021916908373ffffffffffffffffffffffffffffffffffffffff1602179055506064600560003073ffffffffffffffffffffffffffffffffffffffff1673ffffffffffffffffffffffffffffffffffffffff168152602001908152602001600020819055506040518060400160405280600481526020017f69646c6500000000000000000000000000000000000000000000000000000000815250600690805190602001906200011692919062000128565b506064600e60000181905550620001d7565b828054600181600116156101000203166002900490600052602060002090601f016020900481019282601f106200016b57805160ff19168380011785556200019c565b828001600101855582156200019c579182015b828111156200019b5782518255916020019190600101906200017e565b5b509050620001ab9190620001af565b5090565b620001d491905b80821115620001d0576000816000905550600101620001b6565b5090565b90565b61131280620001e76000396000f3fe6080604052600436106100a75760003560e01c8063900b271111610064578063900b27111461035d5780639d281aba14610367578063a4fcc57a146103d0578063b73c6ce914610435578063db374c311461043f578063dfeccdd014610490576100a7565b8063025e7c27146100ac57806309d326351461012757806333597869146102075780633dcdcc731461025e57806357ce01f3146102c357806363766d0914610353575b600080fd5b3480156100b857600080fd5b506100e5600480360360208110156100cf57600080fd5b810190808035906020019092919050505061049a565b604051808273ffffffffffffffffffffffffffffffffffffffff1673ffffffffffffffffffffffffffffffffffffffff16815260200191505060405180910390f35b34801561013357600080fd5b506101ed6004803603602081101561014a57600080fd5b810190808035906020019064010000000081111561016757600080fd5b82018360208201111561017957600080fd5b8035906020019184600183028401116401000000008311171561019b57600080fd5b91908080601f016020809104026020016040519081016040528093929190818152602001838380828437600081840152601f19601f8201169050808301925050505050505091929192905050506104d6565b604051808215151515815260200191505060405180910390f35b34801561021357600080fd5b5061021c6105cd565b604051808273ffffffffffffffffffffffffffffffffffffffff1673ffffffffffffffffffffffffffffffffffffffff16815260200191505060405180910390f35b34801561026a57600080fd5b506102ad6004803603602081101561028157600080fd5b81019080803573ffffffffffffffffffffffffffffffffffffffff1690602001909291905050506105f2565b6040518082815260200191505060405180910390f35b3480156102cf57600080fd5b506102d861060a565b6040518080602001828103825283818151815260200191508051906020019080838360005b838110156103185780820151818401526020810190506102fd565b50505050905090810190601f1680156103455780820380516001836020036101000a031916815260200191505b509250505060405180910390f35b61035b6106a8565b005b61036561084e565b005b34801561037357600080fd5b506103b66004803603602081101561038a57600080fd5b81019080803573ffffffffffffffffffffffffffffffffffffffff169060200190929190505050610aae565b604051808215151515815260200191505060405180910390f35b3480156103dc57600080fd5b5061041f600480360360208110156103f357600080fd5b81019080803573ffffffffffffffffffffffffffffffffffffffff169060200190929190505050610b2c565b6040518082815260200191505060405180910390f35b61043d610b44565b005b34801561044b57600080fd5b5061048e6004803603602081101561046257600080fd5b81019080803573ffffffffffffffffffffffffffffffffffffffff169060200190929190505050610ce8565b005b610498610e5a565b005b600281815481106104a757fe5b906000526020600020016000915054906101000a900473ffffffffffffffffffffffffffffffffffffffff1681565b6000816040516020018082805190602001908083835b6020831061050f57805182526020820191506020810190506020830392506104ec565b6001836020036101000a03801982511681845116808217855250505050505090500191505060405160208183030381529060405280519060200120600660405160200180828054600181600116156101000203166002900480156105aa5780601f106105885761010080835404028352918201916105aa565b820191906000526020600020905b815481529060010190602001808311610596575b505091505060405160208183030381529060405280519060200120149050919050565b6000809054906101000a900473ffffffffffffffffffffffffffffffffffffffff1681565b60056020528060005260406000206000915090505481565b60068054600181600116156101000203166002900480601f0160208091040260200160405190810160405280929190818152602001828054600181600116156101000203166002900480156106a05780601f10610675576101008083540402835291602001916106a0565b820191906000526020600020905b81548152906001019060200180831161068357829003601f168201915b505050505081565b600d60009054906101000a900460ff166106c157600080fd5b671bc16d674ec8000034146106d557600080fd5b600115156107176040518060400160405280600481526020017f69646c65000000000000000000000000000000000000000000000000000000008152506104d6565b15151461072357600080fd5b33600760006101000a81548173ffffffffffffffffffffffffffffffffffffffff021916908373ffffffffffffffffffffffffffffffffffffffff1602179055506040518060400160405280600781526020017f44726976696e6700000000000000000000000000000000000000000000000000815250600690805190602001906107af929190611238565b50426008819055506006420160098190555034600c81905550600760009054906101000a900473ffffffffffffffffffffffffffffffffffffffff1673ffffffffffffffffffffffffffffffffffffffff167f142c58fcef03e81eca098b1fada4ac83477b6383a146c2b09d71bcb7b556fff33460085460095460405180848152602001838152602001828152602001935050505060405180910390a2565b600d60009054906101000a900460ff1661086757600080fd5b6000809054906101000a900473ffffffffffffffffffffffffffffffffffffffff1673ffffffffffffffffffffffffffffffffffffffff163373ffffffffffffffffffffffffffffffffffffffff161480156108c4575060095442115b8061091c5750600760009054906101000a900473ffffffffffffffffffffffffffffffffffffffff1673ffffffffffffffffffffffffffffffffffffffff163373ffffffffffffffffffffffffffffffffffffffff16145b61092557600080fd5b600115156109676040518060400160405280600781526020017f64726976696e67000000000000000000000000000000000000000000000000008152506104d6565b15151461097357600080fd5b600060095442111590508061099f576009544203600b81905550610998600b54610ed6565b600a819055505b600a54670de0b6b3a764000001600c5403600481905550600454600c5403600181905550600760009054906101000a900473ffffffffffffffffffffffffffffffffffffffff1673ffffffffffffffffffffffffffffffffffffffff167fd893ac866e96f599f1c3491bd5293b75e3738f2a7c77c58e5a929ab93393a9a2428360405180838152602001821515151581526020019250505060405180910390a2610a47610eed565b6040518060400160405280600481526020017f69646c650000000000000000000000000000000000000000000000000000000081525060069080519060200190610a92929190611238565b5060006008819055506000600981905550610aab611016565b50565b6000600d60009054906101000a900460ff16610ac957600080fd5b600760009054906101000a900473ffffffffffffffffffffffffffffffffffffffff1673ffffffffffffffffffffffffffffffffffffffff168273ffffffffffffffffffffffffffffffffffffffff1614610b2357600080fd5b60019050919050565b60036020528060005260406000206000915090505481565b600d60009054906101000a900460ff16610b5d57600080fd5b600080905060008090505b6002805490508160ff161015610bfc573373ffffffffffffffffffffffffffffffffffffffff1660028260ff1681548110610b9f57fe5b9060005260206000200160009054906101000a900473ffffffffffffffffffffffffffffffffffffffff1673ffffffffffffffffffffffffffffffffffffffff161415610bef5760019150610bfc565b8080600101915050610b68565b5080610c0757600080fd5b6000600360003373ffffffffffffffffffffffffffffffffffffffff1673ffffffffffffffffffffffffffffffffffffffff16815260200190815260200160002054905060008111610c5857600080fd5b6000600360003373ffffffffffffffffffffffffffffffffffffffff1673ffffffffffffffffffffffffffffffffffffffff168152602001908152602001600020819055503373ffffffffffffffffffffffffffffffffffffffff166108fc829081150290604051600060405180830381858888f19350505050158015610ce3573d6000803e3d6000fd5b505050565b60028190806001815401808255809150509060018203906000526020600020016000909192909190916101000a81548173ffffffffffffffffffffffffffffffffffffffff021916908373ffffffffffffffffffffffffffffffffffffffff160217905550506001600d60006101000a81548160ff0219169083151502179055507f4bfb083e0b8df314df00e8450fd628e98f5680cfc8fc3d5b5f2dfff19bef4a7c816006604051808373ffffffffffffffffffffffffffffffffffffffff1673ffffffffffffffffffffffffffffffffffffffff16815260200180602001828103825283818154600181600116156101000203166002900481526020019150805460018160011615610100020316600290048015610e485780601f10610e1d57610100808354040283529160200191610e48565b820191906000526020600020905b815481529060010190602001808311610e2b57829003601f168201915b5050935050505060405180910390a150565b600d60009054906101000a900460ff16610e7357600080fd5b6000809054906101000a900473ffffffffffffffffffffffffffffffffffffffff1673ffffffffffffffffffffffffffffffffffffffff163373ffffffffffffffffffffffffffffffffffffffff1614610ecc57600080fd5b610ed461110a565b565b600080655af3107a40009050808302915050919050565b600760009054906101000a900473ffffffffffffffffffffffffffffffffffffffff1673ffffffffffffffffffffffffffffffffffffffff166108fc6001549081150290604051600060405180830381858888f19350505050158015610f57573d6000803e3d6000fd5b50600760009054906101000a900473ffffffffffffffffffffffffffffffffffffffff1673ffffffffffffffffffffffffffffffffffffffff167f88788f544d999164d4cab93a518e675c6538345784269e31725145986a9b97a06001546040518082815260200191505060405180910390a26000600760006101000a81548173ffffffffffffffffffffffffffffffffffffffff021916908373ffffffffffffffffffffffffffffffffffffffff1602179055506000600181905550565b600d60009054906101000a900460ff1661102f57600080fd5b61103761110a565b60006002805490506004548161104957fe5b04905060008090505b6002805490508160ff16101561110657816003600060028460ff168154811061107757fe5b9060005260206000200160009054906101000a900473ffffffffffffffffffffffffffffffffffffffff1673ffffffffffffffffffffffffffffffffffffffff1673ffffffffffffffffffffffffffffffffffffffff16815260200190815260200160002060008282540192505081905550816004600082825403925050819055508080600101915050611052565b5050565b600d60009054906101000a900460ff1661112357600080fd5b600067016345785d8a00009050806004600082825403925050819055506000809054906101000a900473ffffffffffffffffffffffffffffffffffffffff1673ffffffffffffffffffffffffffffffffffffffff166108fc829081150290604051600060405180830381858888f193505050501580156111a7573d6000803e3d6000fd5b50427fc63f325d8ca708349ad3d9309cde13937adaa975e4472f68c27ff25ad55ab0546000809054906101000a900473ffffffffffffffffffffffffffffffffffffffff1683604051808373ffffffffffffffffffffffffffffffffffffffff1673ffffffffffffffffffffffffffffffffffffffff1681526020018281526020019250505060405180910390a250565b828054600181600116156101000203166002900490600052602060002090601f016020900481019282601f1061127957805160ff19168380011785556112a7565b828001600101855582156112a7579182015b828111156112a657825182559160200191906001019061128b565b5b5090506112b491906112b8565b5090565b6112da91905b808211156112d65760008160009055506001016112be565b5090565b9056fea265627a7a7231582077d7c5135ab11b89567ee1e51322fe8fcc8ade01462e0c14e44edbe1fd1b557c64736f6c63430005100032",
  "source": "pragma solidity ^0.5.10;\r\n \r\nimport \"./safeMath.sol\";\r\n\r\ncontract SmartCar {\r\n  //The address of the car, which will sign transactions made by this contract.\r\n  address payable public carSigner;\r\n\r\n  // Value of the car, in wei\r\n  //uint public carValue;\r\n\r\n  //bytes32 public licensePlate;\r\n  \r\n  uint  balanceToClient;\r\n\r\n  // Owners of the car, they will be the ones that receive payments from the car.\r\n  // We assume each owner owns the car equally.\r\n  address[] public owners;\r\n  uint constant MAX_OWNERS = 100;\r\n\r\n  //Earning from driving will be distributed to each owner for them to withdraw\r\n  mapping (address => uint) public ownersBalance;\r\n  uint  balanceToDistribute;\r\n\r\n  uint constant INITIAL_CAR_SHARES = 100;\r\n  mapping (address => uint) public carShares;\r\n\r\n  //DriverEntity currentDriverEntity;\r\n  string public currentDriveStatus;\r\n\r\n\r\n  address payable currentDriverAddress;\r\n  uint currentDriveStartTime = 0;\r\n  uint256 currentDriveRequiredEndTime =1572674500;\r\n  uint256   fineForDelay=0;\r\n  uint256 timeDiff=0;\r\n  uint256 clientMoney;\r\n\r\n  //Rates\r\n  uint constant RATE_DAILYRENTAL = 2 ether; //1 ETH\r\n\r\n  // enum DriverEntity {\r\n  //   None,\r\n  //   Owner,\r\n  //   Uber,\r\n  //   DailyRental,\r\n  //   Other\r\n  // }\r\n\r\n  // enum DriveStatus {\r\n  //   Idle,\r\n  //   Driving\r\n  // }\r\n\r\n  bool carIsReady = false;\r\n\r\n \r\n  struct CarInternals {\r\n    uint fuel; //Measured in percentage\r\n  }\r\n\r\n  CarInternals carInternals;\r\n\r\n\r\n  modifier onlyIfReady {\r\n        require(carIsReady);\r\n        _;\r\n    }\r\n\r\n  event E_TransferEthForStipends(address _carSigner,uint _amount, uint indexed _eventDate);\r\n  event E_RentCarDaily(address indexed _currentDriverAddress,uint _rentValue,uint _rentalStart,uint _rentalEnd);\r\n  event E_EndRentCarDaily(address indexed _currentDriverAddress,uint _rentalEnd, bool _endedWithinPeriod);\r\n  event E_ClientBalance(address indexed _currentDriverAddress,uint256 balanceToClient);\r\n  event owner(address owner,string status);\r\n  \r\n\r\n  ////////////////////////////////////\r\n  // Functions\r\n  ////////////////////////////////////\r\n\r\n  constructor() public {\r\n   // require(_licensePlate.length >0 && _carValue > 0);\r\n    carSigner = msg.sender;\r\n    //carValue = _carValue;\r\n    //licensePlate = _licensePlate;\r\n    carShares[address(this)] = INITIAL_CAR_SHARES;\r\n\r\n    currentDriveStatus ='idle';\r\n    //currentDriverEntity = DriverEntity.None;\r\n\r\n    carInternals.fuel = 100;\r\n  }\r\n\r\n  \r\n  function setOwners(address  _owners) public {\r\n   // require(msg.sender == carSigner);\r\n   // require(_owners.length > 0 && _owners.length <= MAX_OWNERS);\r\n\r\n    //Can only set owners once.\r\n//    require(owners.length == 0);\r\n\r\n    owners.push(_owners);\r\n\r\n    //We take the total carShares the \"car\" owns and we distribute them equally among new owners\r\n    //If the shares are not properly divisible (I.E: 100 shares / 3 owners) the remaining shares stay with the car\r\n    // uint sharesToDistribute = carShares[address(this)]/owners.length;\r\n\r\n    // for (uint8 i; i<owners.length;i++){\r\n    //   carShares[owners[i]] = sharesToDistribute;\r\n    //   carShares[address(this)] -= sharesToDistribute;\r\n    // }\r\n\r\n    carIsReady = true;\r\n    emit owner(_owners,currentDriveStatus);\r\n    \r\n  }\r\n\r\n  function isCorrect(string memory _status) public view returns(bool){\r\n        return (keccak256(abi.encodePacked((currentDriveStatus)))==keccak256(abi.encodePacked((_status))));\r\n    }\r\n\r\n  /////////////////////////////////////\r\n  // Functions called by a third party\r\n  /////////////////////////////////////\r\n\r\n\r\n  function rentCarDaily() public onlyIfReady payable{\r\n    //No one must be using the car\r\n     \r\n     require (msg.value == RATE_DAILYRENTAL);\r\n     require(isCorrect('idle')==true);\r\n\r\n      currentDriverAddress = msg.sender;\r\n      currentDriveStatus='Driving';\r\n     //currentDriveStatus = DriveStatus.Driving;\r\n    //currentDriverEntity = DriverEntity.DailyRental;\r\n      currentDriveStartTime = now;\r\n      currentDriveRequiredEndTime = now + 6;\r\n\r\n      clientMoney= msg.value; // ADD SafeMath Library\r\n   \r\n    emit E_RentCarDaily(currentDriverAddress,msg.value, currentDriveStartTime,currentDriveRequiredEndTime);\r\n  }\r\n\r\n\r\n\r\n  function activateCar(address _user) public view onlyIfReady returns(bool){\r\n    require (_user == currentDriverAddress);\r\n    return true;\r\n  }\r\n\r\n  \r\n  function endRentCarDaily () public onlyIfReady payable{\r\n    // The person renting the car can end the rental anytime.\r\n    // The carSigner can end the rental only after the renting period has ended\r\n    // in order to \"claim the car back\".\r\n    require ((msg.sender == carSigner && now > currentDriveRequiredEndTime)\r\n            || msg.sender == currentDriverAddress);\r\n\r\n    //To be called only if it is being rented for the day.\r\n     require(isCorrect('driving')==true);\r\n    //require (currentDriveStatus == DriveStatus.Driving);\r\n    //require (currentDriverEntity == DriverEntity.DailyRental);\r\n\r\n    bool endedWithinPeriod = now <= currentDriveRequiredEndTime;\r\n    if(!endedWithinPeriod){\r\n        timeDiff=now-currentDriveRequiredEndTime;\r\n        \r\n        fineForDelay=fineCalculate(timeDiff);\r\n        \r\n    }\r\n    /////////////////////////////////\r\n    //balances to client and owners//\r\n    ////////////////////////////////\r\n    balanceToDistribute=clientMoney-(1 ether+fineForDelay);\r\n    balanceToClient=clientMoney-balanceToDistribute;\r\n    \r\n    emit E_EndRentCarDaily(currentDriverAddress, now, endedWithinPeriod);\r\n    \r\n    distributeBalanceToClient();\r\n\r\n    //currentDriverAddress = address(0);\r\n    currentDriveStatus ='idle';\r\n    //currentDriverEntity = DriverEntity.None;\r\n    currentDriveStartTime = 0;\r\n    currentDriveRequiredEndTime = 0;\r\n\r\n    //Distribute earnings of the car rental\r\n    distributeEarnings();\r\n   \r\n  }\r\n  function fineCalculate(uint256 _timeDiff) internal pure returns(uint256){\r\n     \r\n     uint256 fine=1*(10**14);\r\n     return _timeDiff*fine;\r\n    \r\n  }\r\n  \r\n  function distributeBalanceToClient()  internal   {\r\n               currentDriverAddress.transfer(balanceToClient);\r\n               emit E_ClientBalance(currentDriverAddress,balanceToClient);\r\n               currentDriverAddress=address(0);\r\n               balanceToClient=0;\r\n  }\r\n\r\n  /////////////////////////////////////\r\n  // Functions called by the car itself\r\n  /////////////////////////////////////\r\n\r\n \r\n  \r\n  \r\n  function triggerTransferEthForStipends() public onlyIfReady payable{\r\n    require(msg.sender == carSigner);\r\n\r\n    transferEthForStipends();\r\n  }\r\n\r\n  function transferEthForStipends() internal onlyIfReady  {\r\n\r\n    uint amount = 1*(10**17) ;  // 0.1 eth per day should be enough\r\n    //require (carSigner.balance < amount);\r\n    //require(balanceToDistribute >= amount);\r\n\r\n    balanceToDistribute -= amount; // ADD SafeMath Library\r\n    carSigner.transfer(amount);\r\n    emit E_TransferEthForStipends(carSigner,amount, now);\r\n  }\r\n\r\n  //Distribute earnings to owners\r\n  function distributeEarnings() internal onlyIfReady {\r\n    //If the carSigner is running out of eth for transactions, transfer before distribution\r\n    transferEthForStipends();\r\n\r\n    //ETH should also be reserved for recharging fuel at a station. Not considered yet.\r\n    //refuelCar();\r\n\r\n    uint earningsPerOwner = balanceToDistribute / owners.length;\r\n    for (uint8 i=0;i<owners.length;i++){\r\n      ownersBalance[owners[i]] += earningsPerOwner; // ADD SafeMath Library\r\n      balanceToDistribute -= earningsPerOwner; // ADD SafeMath Library\r\n    }\r\n  }\r\n\r\n  /////////////////////////////////////\r\n  // Functions called by owners\r\n  /////////////////////////////////////\r\n\r\n  // Allow an owner to manually distribute earnings, in case there is a pending\r\n  // balance and the car has not ended a rental yet.\r\n  \r\n  \r\n  \r\n  //function triggerDistributeEarnings() public onlyIfReady payable{\r\n    //require(balanceToDistribute >0);\r\n\r\n    //Make sure the one calling the function is actually an owner\r\n   // bool isOwner = false;\r\n    //for (uint8 i=0;i<owners.length;i++){\r\n     // if (owners[i] == msg.sender){\r\n     //   isOwner = true;\r\n      //  break;\r\n      //}\r\n   // }\r\n   // require (isOwner);\r\n   // require(owners[0]==msg.sender);\r\n   // distributeEarnings();\r\n // }\r\n\r\n  //Each owner should call this function to withdraw the balance they have pending.\r\n  function withdrawEarnings() public onlyIfReady payable{\r\n\r\n    //Make sure the one calling the function is actually an owner\r\n    bool isOwner = false;\r\n    for (uint8 i=0;i<owners.length;i++){\r\n      if (owners[i] == msg.sender){\r\n        isOwner = true;\r\n        break;\r\n      }\r\n    }\r\n    require (isOwner);\r\n\r\n    uint balanceToWithdraw = ownersBalance[msg.sender];\r\n    require (balanceToWithdraw > 0);\r\n\r\n    ownersBalance[msg.sender] =0;\r\n    msg.sender.transfer(balanceToWithdraw);\r\n  }\r\n\r\n}",
  "sourcePath": "J:\\rihab\\CAR\\src\\contracts\\SmartCar.sol",
  "compiler": {
    "name": "solc",
    "version": "0.5.16+commit.9c3226ce.Emscripten.clang"
  },
  "schemaVersion": "3.0.23",
  "updatedAt": "2020-06-10T05:55:38.951Z",
  "networkType": "ethereum",
  "devdoc": {
    "methods": {}
  },
  "userdoc": {
    "methods": {
      "constructor": "/////////////////////////////////",
      "rentCarDaily()": {
        "notice": "//////////////////////////////////"
      },
      "triggerTransferEthForStipends()": {
        "notice": "//////////////////////////////////"
      },
      "withdrawEarnings()": {
        "notice": "//////////////////////////////////"
      }
    }
  }
}